:020000022000DC
:1000000078D70320158003000DCC0400E97F03009E
:10001000E97F0300E97F0300E97F0300E97F030034
:10002000000000000000000000000000ED78030068
:10003000E97F03000000000091780300E1D904008B
:1000400071790300717903007179030071790300FC
:1000500071790300717903007179030071790300EC
:1000600071790300717903007179030071790300DC
:1000700071790300717903007179030071790300CC
:1000800071790300717903007179030071790300BC
:1000900071790300717903007179030071790300AC
:1000A000717903007179030071790300717903009C
:1000B000717903007179030071790300717903008C
:1000C000717903007179030071790300717903007C
:1000D000717903007179030071790300717903006C
:1000E000717903007179030071790300717903005C
:1000F000717903007179030071790300717903004C
:10010000717903007179030071790300717903003B
:10011000717903007179030071790300717903002B
:10012000717903007179030071790300717903001B
:10013000717903007179030071790300717903000B
:1001400071790300717903007179030071790300FB
:1001500071790300000000000000000000000000B2
:10016000000000000000000000000000000000008F
:10017000000000000000000000000000000000007F
:10018000000000000000000000000000000000006F
:10019000000000000000000000000000000000005F
:1001A000000000000000000000000000000000004F
:1001B000000000000000000000000000000000003F
:1001C000000000000000000000000000000000002F
:1001D000000000000000000000000000000000001F
:1001E000000000000000000000000000000000000F
:1001F00000000000000000000000000000000000FF
:10020000DEE61E284CBBCE8F023500003C0000000D
:10021000ECB9030001000000000002000000020031
:10022000FFFF02910000000000000000000000003D
:0C023000000000000000000000000000C2
:04023C00FFFFFFFFC2
:1002400081F0004102E000BF83F0004330B54FEA87
:1002500041044FEA430594EA050F08BF90EA020FF4
:100260001FBF54EA000C55EA020C7FEA645C7FEA87
:10027000655C00F0E2804FEA5454D4EB5555B8BFAA
:100280006D420CDD2C4480EA020281EA030382EA1B
:10029000000083EA010180EA020281EA0303362DAD
:1002A00088BF30BD11F0004F4FEA01314FF4801C80
:1002B0004CEA113102D0404261EB410113F0004F92
:1002C0004FEA03334CEA133302D0524263EB430349
:1002D00094EA050F00F0A780A4F10104D5F1200EE7
:1002E0000DDB02FA0EFC22FA05F2801841F1000142
:1002F00003FA0EF2801843FA05F359410EE0A5F116
:1003000020050EF1200E012A03FA0EFC28BF4CF046
:10031000020C43FA05F3C01851EBE37101F00045FC
:1003200007D54FF0000EDCF1000C7EEB00006EEB09
:100330000101B1F5801F1BD3B1F5001F0CD3490893
:100340005FEA30004FEA3C0C04F101044FEA4452EA
:1003500012F5800F80F09A80BCF1004F08BF5FEA71
:10036000500C50F1000041EB045141EA050130BD51
:100370005FEA4C0C404141EB0101013C28BFB1F563
:10038000801FE9D291F0000F04BF01460020B1FAAE
:1003900081F308BF2033A3F10B03B3F120020CDA81
:1003A0000C3208DD02F1140CC2F10C0201FA0CF05F
:1003B00021FA02F10CE002F11402D8BFC2F1200CC4
:1003C00001FA02F120FA0CFCDCBF41EA0C0190407A
:1003D000E41AA2BF01EB0451294330BD6FEA0404C3
:1003E0001F3C1CDA0C340EDC04F11404C4F12002AE
:1003F00020FA04F001FA02F340EA030021FA04F3C0
:1004000045EA030130BDC4F10C04C4F1200220FA16
:1004100002F001FA04F340EA0300294630BD21FA54
:1004200004F0294630BD94F0000F83F4801306BF1A
:1004300081F480110134013D4EE77FEA645C18BF0E
:100440007FEA655C29D094EA050F08BF90EA020FA5
:1004500005D054EA000C04BF1946104630BD91EA9D
:10046000030F1EBF0021002030BD5FEA545C05D1A0
:100470004000494128BF41F0004130BD14F58004DF
:100480003CBF01F5801130BD01F0004545F0FE4153
:1004900041F470014FF0000030BD7FEA645C1ABF88
:1004A000194610467FEA655C1CBF0B46024650EABF
:1004B000013406BF52EA033591EA030F41F40021EB
:1004C00030BD00BF90F0000F04BF0021704730B571
:1004D0004FF4806404F132044FF000054FF0000146
:1004E00050E700BF90F0000F04BF0021704730B507
:1004F0004FF4806404F1320410F0004548BF4042DC
:100500004FF000013EE700BF42004FEAE2014FEA30
:1005100031014FEA02701FBF12F07F4393F07F4F0B
:1005200081F06051704732F07F4208BF704793F00E
:100530007F4F04BF41F40021704730B54FF4607421
:1005400001F0004521F000411CE700BF50EA010224
:1005500008BF704730B54FF000050AE050EA0102CD
:1005600008BF704730B511F0004502D5404261EB3D
:1005700041014FF4806404F132045FEA915C3FF47E
:10058000D8AE4FF003025FEADC0C18BF03325FEA1B
:10059000DC0C18BF033202EBDC02C2F1200300FACC
:1005A00003FC20FA02F001FA03FE40EA0E0021FAF1
:1005B00002F11444BDE600BF70B54FF0FF0C4CF4DF
:1005C000E06C1CEA11541DBF1CEA135594EA0C0F91
:1005D00095EA0C0F00F0DEF82C4481EA030621EACC
:1005E0004C5123EA4C5350EA013518BF52EA033507
:1005F00041F4801143F4801338D0A0FB02CE4FF0B9
:100600000005E1FB02E506F00042E0FB03E54FF0E8
:100610000006E1FB03569CF0000F18BF4EF0010EE0
:10062000A4F1FF04B6F5007F64F5407404D25FEADC
:100630004E0E6D4146EB060642EAC62141EA55518F
:100640004FEAC52040EA5E504FEACE2EB4F1FD0CD1
:1006500088BFBCF5E06F1ED8BEF1004F08BF5FEA4F
:10066000500E50F1000041EB045170BD06F0004601
:1006700046EA010140EA020081EA0301B4EB5C04AE
:10068000C2BFD4EB0C0541EA045170BD41F48011A6
:100690004FF0000E013C00F3AB8014F1360FDEBFCB
:1006A000002001F0004170BDC4F10004203C35DAA7
:1006B0000C341BDC04F11404C4F1200500FA05F32A
:1006C00020FA04F001FA05F240EA020001F00042CB
:1006D00021F0004110EBD37021FA04F642EB060141
:1006E0005EEA430E08BF20EAD37070BDC4F10C046B
:1006F000C4F1200500FA04F320FA05F001FA04F22F
:1007000040EA020001F0004110EBD37041F100011A
:100710005EEA430E08BF20EAD37070BDC4F1200525
:1007200000FA05F24EEA020E20FA04F301FA05F28D
:1007300043EA020321FA04F001F0004121FA04F235
:1007400020EA020000EBD3705EEA430E08BF20EA05
:10075000D37070BD94F0000F0FD101F0004640003F
:1007600041EB010111F4801F08BF013CF7D041EAC1
:10077000060195F0000F18BF704703F000465200C5
:1007800043EB030313F4801F08BF013DF7D043EA96
:100790000603704794EA0C0F0CEA135518BF95EA4C
:1007A0000C0F0CD050EA410618BF52EA4306D1D1D3
:1007B00081EA030101F000414FF0000070BD50EAF2
:1007C000410606BF1046194652EA430619D094EA7C
:1007D0000C0F02D150EA013613D195EA0C0F05D166
:1007E00052EA03361CBF104619460AD181EA0301BA
:1007F00001F0004141F0FE4141F470014FF0000072
:1008000070BD41F0FE4141F4780170BD70B54FF00C
:10081000FF0C4CF4E06C1CEA11541DBF1CEA13558C
:1008200094EA0C0F95EA0C0F00F0A7F8A4EB05046E
:1008300081EA030E52EA03354FEA013100F0888065
:100840004FEA03334FF0805545EA131343EA12632E
:100850004FEA022245EA111545EA10654FEA0026E3
:100860000EF000419D4208BF964244F1FD0404F59C
:10087000407402D25B084FEA3202B61A65EB0305F8
:100880005B084FEA32024FF480104FF4002CB6EBB5
:10089000020E75EB030E22BFB61A754640EA0C0035
:1008A0005B084FEA3202B6EB020E75EB030E22BF75
:1008B000B61A754640EA5C005B084FEA3202B6EBB6
:1008C000020E75EB030E22BFB61A754640EA9C0075
:1008D0005B084FEA3202B6EB020E75EB030E22BF45
:1008E000B61A754640EADC0055EA060E18D04FEA03
:1008F000051545EA16754FEA06164FEAC30343EAA3
:1009000052734FEAC2025FEA1C1CC0D111F4801F6F
:100910000BD141EA00014FF000004FF0004CB6E768
:1009200011F4801F04BF01430020B4F1FD0C88BF07
:10093000BCF5E06F3FF6AFAEB5EB030C04BFB6EB12
:10094000020C5FEA500C50F1000041EB045170BD05
:100950000EF0004E4EEA113114EB5C04C2BFD4EB32
:100960000C0541EA045170BD41F480114FF0000EB6
:10097000013C90E645EA060E8DE60CEA135594EA32
:100980000C0F08BF95EA0C0F3FF43BAF94EA0C0F35
:100990000AD150EA01347FF434AF95EA0C0F7FF4AA
:1009A00025AF104619462CE795EA0C0F06D152EAFE
:1009B00003353FF4FDAE1046194622E750EA4106E2
:1009C00018BF52EA43067FF4C5AE50EA41047FF4F3
:1009D0000DAF52EA43057FF4EBAE12E74FF0FF3C58
:1009E00006E000BF4FF0010C02E000BF4FF0010C29
:1009F0004DF804CD4FEA410C7FEA6C5C4FEA430CA2
:100A000018BF7FEA6C5C1BD001B050EA410C0CBFF0
:100A100052EA430C91EA030F02BF90EA020F002052
:100A2000704710F1000F91EA030F58BF994208BFB9
:100A300090422CBFD8176FEAE37040F00100704776
:100A40004FEA410C7FEA6C5C02D150EA013C07D1CD
:100A50004FEA430C7FEA6C5CD6D152EA033CD3D018
:100A60005DF8040B704700BF8446104662468C4612
:100A70001946634600E000BF01B5FFF7B7FF002845
:100A800048BF10F1000F01BD4DF808EDFFF7F4FF6E
:100A90000CBF012000205DF808FB00BF4DF808EDF9
:100AA000FFF7EAFF34BF012000205DF808FB00BF1C
:100AB0004DF808EDFFF7E0FF94BF012000205DF83E
:100AC00008FB00BF4DF808EDFFF7CEFF94BF0120F3
:100AD00000205DF808FB00BF4DF808EDFFF7C4FFEC
:100AE00034BF012000205DF808FB00BF4FEA410C35
:100AF0007FEA6C5C02D150EA013C0AD14FEA430C18
:100B00007FEA6C5C02D152EA033C02D14FF0000054
:100B100070474FF0010070474FEA410212F5001292
:100B200015D211D56FF47873B3EB625212D94FEA34
:100B3000C12343F0004343EA505311F0004F23FA1E
:100B400002F018BF404270474FF00000704750EA73
:100B5000013005D111F0004008BF6FF00040704730
:100B60004FF00000704700BF7BB972B90029BEBFCB
:100B700000204FF0004106E008BF00281CBF6FF0C6
:100B800000414FF0FF3000F0BBB9ADF1080C6DE94A
:100B900004CE002909DB002B1ADB00F04DF8DDF84C
:100BA00004E0DDE9022304B07047404261EB4101FB
:100BB000002B1BDB00F040F8DDF804E0DDE9022348
:100BC00004B0404261EB4101524263EB4303704782
:100BD000524263EB430300F02FF8DDF804E0DDE957
:100BE000022304B0404261EB41017047524263EB83
:100BF000430300F021F8DDF804E0DDE9022304B04E
:100C0000524263EB4303704753B94AB9002908BF06
:100C100000281CBF4FF0FF314FF0FF3000F070B9DB
:100C2000ADF1080C6DE904CE00F006F8DDF804E043
:100C3000DDE9022304B070472DE9F047089E0D4618
:100C400004468A46002B7FD18A42174641D9B2FA20
:100C500082F24AB1C2F1200105FA02F397409440B2
:100C600020FA01F141EA030A4FEA17484FEA144C0F
:100C70001FFA87F9BAFBF8FE08FB1EA30EFB09F169
:100C80004CEA0343994206D9FB1802D2994200F27A
:100C900024810EF1FF3E591AA3B2B1FBF8F008FB14
:100CA000101100FB09F943EA0144A14505D93C199B
:100CB00002D2A14500F20E810138A4EB090440EAFA
:100CC0000E4000211EB1D4400023C6E90043BDE818
:100CD000F08702B9FFDEB2FA82F2002A4FD1CB1BB5
:100CE0004FEA174E1FFA87F80121250CB3FBFEFCD3
:100CF0000EFB1C302B4608FB0CF945EA0045A945C4
:100D00000AD97D192CBF01230023A94502D9002B44
:100D100000F0D9800CF1FF3CA5EB0905A3B2B5FBAF
:100D2000FEF00EFB105508FB00F843EA0544A04511
:100D300005D93C1902D2A04500F2C9800138A4EBC4
:100D4000080440EA0C40BDE78B4208D9002E00F0B1
:100D5000B1800021C6E900050846BDE8F087B3FA76
:100D600083F1002946D1AB42C0F0A780824240F215
:100D7000A4800846002EAAD0C6E9004AA7E7C2F11F
:100D80002000974001FA02F34FEA174EC14024FABF
:100D900000F51FFA87F894401D43B1FBFEF02B0CC1
:100DA0000EFB101100FB08FC43EA01439C4509D9E6
:100DB000FB182CBF012100219C4502D9002900F01D
:100DC00095800138A3EB0C03ADB2B3FBFEF10EFB33
:100DD000113301FB08FC45EA0345AC4505D97D19F3
:100DE00002D2AC4500F289800139A5EB0C0341EA3F
:100DF00000417AE7C1F120048B4002FA01F705FABD
:100E000001FCE24020FA04F8E54000FA01FE134339
:100E100048EA0C024FEA13484FEA124C1FFA83F9D2
:100E2000B5FBF8FA08FB1A550AFB09F04CEA054C29
:100E300060450AD913EB0C0C2CBF01250025604539
:100E400001D9002D55D00AF1FF3AACEB000C92B25B
:100E5000BCFBF8F008FB10CC00FB09F942EA0C4C93
:100E6000E14505D913EB0C0C01D2E1453BD8013823
:100E700040EA0A40ACEB090CA0FB0789CC4545468B
:100E80004A4602D306D1C64504D20138B8EB07055D
:100E900069EB03022EB3BEEB05036CEB020C23FAE5
:100EA00001F20CFA04F42CFA01F300211443C6E910
:100EB00000430CE73146304609E7841A65EB03032B
:100EC00001209A4656E7ACF1020C3D4424E7023873
:100ED0003C4434E702383C44EFE6AEF1020E3B44BA
:100EE000D9E63146F3E602389C44C1E702383B4478
:100EF00068E7AAF1020A9C44A7E702393D4474E777
:100F0000704700BFC0F16003A0F167021340A0F179
:100F1000570202EAE373C0F14002A0F14701114019
:100F2000A0F1370202EAE1721A43C0F12F03A0F1E7
:100F30003A011940303800EAE1701043431E23EAB9
:100F4000E173DB1703F010031843C0B270472DE9BB
:100F5000F8430746894616461378302B0ED05FEAD1
:100F6000490813D0751E002415F8010FFFF7CAFFBA
:100F70000F280AD801344445F6D107E0537803F02E
:100F8000DF03582B08BF0236E9E7A0464FEA990075
:100F9000B9F1030F07D93A460023194642F8041B5A
:100FA00001339842FAD808F1FF34B8F1000F10D09D
:100FB00000252D0116F8010BFFF7A4FF054314F0DF
:100FC000070F04BFE30847F82350013CB4F1FF3F8B
:100FD000EFD1BDE8F8830B4B03600B4B43600B4B29
:100FE00083600B4BC3600B4B03610B4B43610B4B9B
:100FF000836103F17453A3F52303A3F69243C36102
:10100000704700BF67E6096A85AE67BB72F36E3C46
:101010003AF54FA57F520E518C68059BABD9831FC3
:1010200010B50446FFF7D7FF00220023C4E90823C8
:1010300004F12800034604F1680143F8042B8B42B5
:10104000FBD10023A36610BD013A0A44D208835C99
:10105000CA08805C40EA032001F00701C8407047DD
:1010600070B400EBD105531E0B44DB08C3EBD10376
:1010700000244FF0FF3026462A780240A240164353
:10108000D81705EBD37508340133202CF4D101F0C7
:10109000070126FA01F070BC704720FA01F1013017
:1010A00043084A1E02EA50005B4249421940084385
:1010B0007047400811D000231A4601334008FBD185
:1010C0000C2B01D9901E7047042B01D9501E70477C
:1010D000002B14BF022001207047012070472DE92A
:1010E000F0419E46069B73B30439161F041F4FEA56
:1010F000830C01EB83082746002251F8043F9A1A1B
:1011000063EB030356F8045F521B63F1000347F8D7
:10111000042F03F001024145EFD15142AEF1040525
:1011200004388444002255F8040F084054F8046F32
:101130000023921943F10003121843F100032260C7
:101140001A466445EFD1BDE8F081F0B41546FAB116
:101150000E1F06EB820C00252F460EE004300F43D5
:1011600056F8044F00232A1943F10003891A63EB50
:10117000430505F0010566450BD0044600231946DA
:1011800014F8012B9A4011430833202BF8D1E5E7DE
:101190001746781E20EA07000028B4BF002005F09B
:1011A0000100F0BC70472DE9F04F83B0DDF83080CE
:1011B000002A51D09B4602F1FF3E4FEA880ACDF843
:1011C0000480AAF1040A00901CE00268019C4FF020
:1011D000FF3605460021530801316A6843EAC273AD
:1011E00045F8043BB142F6D3002E08BF0126E407C0
:1011F00044EA520240F826200EF1FF3EBEF1FF3FC6
:101200002AD000990B6843F3000CB8F1000FDCD032
:101210000A1FABF10407061F51440024F1460D4696
:101220008646204657F8043F0CEA030352F8044F61
:101230000021001941F10001C01841F1000146F8F8
:10124000040F0846AA42EDD10C467046CE4602680D
:10125000B8F10106BDD1CAE703B0BDE8F08F2DE9B2
:10126000F04F87B0059008684C68D2F80080D2F83B
:1012700004E0002B62D003F1FF3B4FF0010A002194
:101280008946D44640F3000505EA0802861A821A08
:1012900060EB000303F0010705EA0E02A21A64EBFB
:1012A0000403D21B63F10003CDE900231346019A26
:1012B0005A40019B7340019E06F0010602960026EB
:1012C0000396DDE90267F61847F100073A4480EA21
:1012D0000800019B184088EA000884EA0E041C40BC
:1012E0008EEA040E8CEA0100184080EA0C0C4140A2
:1012F00089EA0A00034083EA090983EA0A0A05EA3F
:101300000103ACEB030C05EA0A05A9EB050949004A
:101310004FEA4A0AD00740EA560054080BF1FF3B57
:10132000BBF1FF3FAED1059BC3F800C0C3F80490EA
:101330009960C3F80CA007B0BDE8F08F9946194634
:101340004FF0010AD446EEE7B3B1F0B402F0010564
:101350000C1F061F04EB830754F8043F5340002181
:10136000E81841F100012B4446F8043F0D46BC4209
:10137000F2D1C017F0BC70470020C0177047F0B41E
:10138000BBB10439151F041F01EB8306002051F87F
:10139000047F55F8042F0023D21943F100031218DB
:1013A00043F1000344F8042F1846B142EFD1F0BCDA
:1013B00070471846FBE770B40446184673B10B1F1C
:1013C000043C03EB8006002053F8045F0021E2FB9D
:1013D000050144F8040F0846B342F5D170BC7047CC
:1013E0002DE9F04F8BB005900991DDF85090116810
:1013F0005468D3F800C0D3F804B0B9F1000F73D02B
:1014000009F1FF334FF0010800208146C6469A4695
:1014100041F3000505EA0C028E1A8A1A61EB0103FA
:1014200003F0010705EA0B02A21A64EB0403D21BC6
:1014300063F1000301EA0C07CDE9002303EA570733
:10144000009B019A5A400892019B5E4003F0010301
:10145000029300230393DDE90223921943F1000371
:10146000CDE90623089A1A4481EA0C01019B194030
:101470008CEA010C84EA0B041C408BEA040B8EEA14
:101480000001194081EA0E0E484089EA08010B402C
:1014900083EA090983EA080805EA0003AEEB030EB4
:1014A00005EA0805A9EB050940004FEA4808D107FD
:1014B000069B41EA530154080CF1020307EB930722
:1014C000059B3B4405930AF1FF3ABAF1FF3F9FD1D8
:1014D000099BC3F800E0C3F804909860C3F80C803F
:1014E00005980BB0BDE8F08F48464FF00108C6469E
:1014F000EEE72DE9F04F8BB000AF786079611446CC
:10150000BB60D7F854A00AF101039800F860C31D2E
:1015100023F00703ADEB030DEE461668BAF1000F9A
:101520002FD00B1FAEF10402051F1D440020AC4656
:1015300053F8045F0021E6FB050142F8040F08465A
:101540006345F5D15346DEF80020396D02FB01F208
:101550004EF82300B9680B68BB61A046FB68A3F195
:10156000040C043C634604EB0C0B39610E1F66440B
:101570007969A1F1040C9C444FF00009C7F81CA044
:1015800058E053465046DEE7012373E0BAF1000FFE
:101590002ED0AEF10405BB681E1F7B68043BFA68C1
:1015A000083A96441C462A4600219C4652F8040FED
:1015B000401A60EB000156F8043FC01A61F10001C7
:1015C00044F8040F01F001017245EFD163463A6A15
:1015D000541A7A68F9680A44A2F1080053F8041F03
:1015E00055F8042F4A4022404A401A608342F5D100
:1015F0002C37BD46BDE8F08F52F8045F53F8046FF6
:101600000021801941F10001E4FB05011860084642
:101610006245F1D17646CE46FB69DEF80020396D91
:1016200002FB01F2D7E90845241845F100054EF800
:101630002340A9461546BB69A2FB0323DEF8001030
:10164000521843F100031C46BAF1010F9CD97046B1
:10165000396951F8042FA2FB0523121943F1000345
:101660004468121943F1000340F8042B1C46B142B0
:10167000EFD1FB690EEB83015EF82300002319EB29
:10168000040243F10003121843F1000341F8042C53
:101690003B6200237B62D8453FF478AF58F8044F93
:1016A000BAF1000F07D07B691A1FAEF104030020C6
:1016B000F146B646A0E7F8690346AEE703B32DE965
:1016C000F04383B006460F4603EB43042401DFF8E2
:1016D0003490A2F13005DFF83080A7F13001A6F197
:1016E00030000C230193CDF800804B462A19214489
:1016F0002044FFF7FEFE303CEFD103B0BDE8F0839D
:10170000704700BF58410500FDFFFCFF30B583B0B6
:101710000B1F021F01F15C0553F8044F42F8044F00
:10172000AB42F9D1064B0C220192064A009203F11A
:10173000300260316030FFF7DCFE03B030BD00BF27
:1017400058410500FDFFFCFF2DE9F04182B0044641
:101750000D466030164E4FF00C08CDF80480154F42
:10176000009733460A460146FFF7C3FE04F1900096
:10177000CDF80480009733462A460146FFF7B9FEAC
:1017800004F1C0003035CDF80480009733462A4676
:101790000146FFF7AEFE04F1F000CDF8048000979B
:1017A00033462A460146FFF7A4FE02B0BDE8F081A9
:1017B00058410500FDFFFCFF2DE9F04383B0814651
:1017C0000F4690460B1F041F01F15C0653F8045F9F
:1017D00044F8045FB342F9D1174C0C260196174D1B
:1017E00000952346424607F1600109F16000FFF7CA
:1017F00080FE019600952346424607F1900109F1CB
:101800009000FFF776FE08F1300801960095234618
:10181000424607F1C00109F1C000FFF76AFE0196D8
:1018200000952346424607F1F00109F1F000FFF769
:1018300060FE03B0BDE8F08358410500FDFFFCFFEA
:101840002DE9F04FCDB08146884600F1600A00F1E5
:101850005C038C30002253F8041F0A438342FAD100
:10186000541E24EA0202D30F039308F1600B08F11F
:101870005C0308F18C00002253F8041F0A438342E2
:10188000FAD1541E24EA0204E40F2F4D0C270197CD
:101890002E4E00962B465246514640A8FFF729FE91
:1018A000019700962B465A46594634A8FFF721FE69
:1018B000019700962B4634AA49461CA8FFF719FE4B
:1018C000019700962B4640AA414604A8FFF711FE57
:1018D000019700962B465A4609F1300128A8FFF7D8
:1018E00008FE019700962B46524608F1300110A8D9
:1018F000FFF7FFFD019700962B4634AA28A908465A
:10190000FFF7F7FD019700962B4640AA10A908465D
:10191000FFF7EFFD1BAA0DEB070133AE002052F8D5
:10192000043F51F8045F6B401843B242F7D1431EA5
:1019300023EA0000039B5C4084F0010404EAD070B9
:101940004DB0BDE8F08F00BF58410500FDFFFCFF22
:101950002DE9F04F91B003900D46904601F1EC0453
:1019600001F58E772346002653F8042F1643BB4219
:10197000FAD1DFF8CC9005F1900B4FF00C0ACDF8BE
:1019800004A02D4B00934B4605F1C0024146404652
:10199000FFF7AFFDCDF804A0274B00934B4642461E
:1019A000414604A8FFF7A5FDCDF800A04B465A46D6
:1019B00004A9DDF80CB05846FFF791FB5A460BF12D
:1019C000300BCDF800A04B46039229465846FFF74E
:1019D00086FBCDF804A0184B00934B46424659466F
:1019E0005846FFF786FDCDF800A04B4605F13002C2
:1019F00059465846FFF773FB731E23EA0606F6178F
:101A00002A1F039B181F5C3550F8041F52F8043F2F
:101A1000002E08BF0B460360AA42F5D1074A52F8D0
:101A2000043B54F8041F002E08BF0B462360BC4241
:101A3000F5D111B0BDE8F08FFDFFFCFFB841050006
:101A4000584105002DE9F84F00AF82469B46B86A21
:101A50004FEA800E0EF1070323F00703ADEB030DF1
:101A6000002842D0E8460439043AA8F1040001EB0A
:101A70000E0C0646002351F8049F52F8044F00252F
:101A800014EB090445F10005E41845F1000546F89A
:101A9000044F2B466145EED1ABF1040CAAF10402D0
:101AA000AEF10401884416460146002451F8045F53
:101AB0002C1B65EB05055CF8049FB4EB090465F18C
:101AC000000546F8044F05F001044145EED11C1B0A
:101AD000AAF1040AD64452F8043F50F8041F5940B2
:101AE0002140594011607245F5D1BD46BDE8F88FDF
:101AF000F0B59BB004461B4D0C2601961A4F00977B
:101B00002B46024601460EA8FFF7F3FC019600970C
:101B10002B4622460EA90846FFF7EBFC00962B4603
:101B200005F528720EA90846FFF78CFF04F1300175
:101B3000019600972B460A4602A8FFF7DAFC0EAA88
:101B400002A91AAD002052F8043B51F8044B63403F
:101B50001843AA42F7D1431E23EA0000C00F1BB06E
:101B6000F0BD00BF58410500FDFFFCFF2BB32DE980
:101B7000F04782B005468946904603EB430402EBEA
:101B80000414303C0D4F0C26DFF834A00196CDF83C
:101B900000A03B464A4629462846FFF7AAFC009685
:101BA0003B46224629462846FFF74CFF4445A4F110
:101BB0003004EBD102B0BDE8F08770475841050012
:101BC000FDFFFCFF2DE9F043ADF26C6D0746884642
:101BD00001F16009AD4C0C250195AD4E00962346F0
:101BE0004A4649460DF5C760FFF783FC019500960C
:101BF00023460DF5C76211460DF5C160FFF779FC6C
:101C00000195009623460DF5C1620DF5C7610DF5EE
:101C1000BB60FFF76EFC0195009623460DF5C1628F
:101C200011460DF5B560FFF764FC0195009623465B
:101C30000DF5BB620DF5C1610DF5AF60FFF759FC05
:101C40000195009623460DF5BB6211460DF5A9607E
:101C5000FFF74FFC0195009623460DF5B5620DF593
:101C6000BB610DF5A360FFF744FC01950096234688
:101C70000DF5B56211460DF59D60FFF73AFC019533
:101C8000009623460DF5AF620DF5B5610DF5976031
:101C9000FFF72FFC0195009623460DF5AF62114624
:101CA0000DF59160FFF725FC0195009623460DF593
:101CB000A9620DF5AF610DF58B60FFF71AFC019578
:101CC000009623460DF5A96211460DF58560FFF7D4
:101CD00010FC0195009623460DF5A3620DF5A96150
:101CE000FEA8FFF706FC0195009623460DF5A362BA
:101CF0001146F2A8FFF7FDFB0195009623460DF56E
:101D00009D620DF5A361E6A8FFF7F3FB0B230DF52C
:101D10008B6204F5347132A8FFF7D0FC0195009670
:101D2000234604F59C62414626A8FFF7E2FB009596
:101D30002346AAAA26A90846FFF784FE0A2332AA48
:101D4000414626A8FFF712FF0A230DF5916204F51C
:101D5000A26132A8FFF7B2FC009523469EAA414635
:101D60001AA8FFF76FFE092332AA41461AA8FFF707
:101D7000FDFE0195009623460DF5C7621AA9084697
:101D8000FFF7B7FB0F23E6AA04F5DE6132A8FFF7E1
:101D900095FC01950096234604F51C6241460EA869
:101DA000FFF7A7FB00952346DAAA0EA90846FFF71E
:101DB00049FE0E2332AA41460EA8FFF7D7FE019531
:101DC0000096234608F130020EA90846FFF791FB62
:101DD0000F23E6AA04F51F6132A8FFF76FFC0095F8
:101DE0002346DAAA414602A8FFF72CFE0E2332AAA8
:101DF000414602A8FFF7BAFE0195009623464A46DF
:101E00000DF5C7610846FFF774FB01950096234660
:101E10000DF5C76202A90846FFF76BFB07F16008E2
:101E200001950096234602AA1AA94046FFF761FBD6
:101E300001950096234602AA26A93846FFF759FBCA
:101E4000019500962346424639463846FFF751FB36
:101E50003037019500962346424641463846FFF703
:101E600048FB0195009623461AAA39463846FFF7E3
:101E700040FB0195009623460EAA39463846FFF7E7
:101E800038FB0DF26C6DBDE8F08300BF58410500D2
:101E9000FDFFFCFF2DE9F04FFDB003900F46164605
:101EA00001F1600A01F15C0301F18C00002253F89A
:101EB000041F0A438342FAD1531E23EA0202D30FBE
:101EC0000293954C4FF00C08CDF80480934D00958B
:101ED0002346524651464CA8FFF70BFBCDF8048031
:101EE0000095234652464CA970A8FFF702FBCDF897
:101EF00004800095234606F1300270A90846FFF7DA
:101F0000F8FA06F1600B06F15C0306F18C014FF064
:101F1000000853F8042F48EA02088B42F9D17E4C9E
:101F20000C250195DFF8F491CDF8009023465A4630
:101F3000594640A8FFF7DDFA0195CDF800902346F9
:101F40005A4640A928A8FFF7D4FA0195CDF8009089
:101F5000234607F1300228A90846FFF7CAFA009580
:101F6000234628AA70A90846FFF7B9F8009523462A
:101F700070AA11461046FFF765FD0195CDF8009057
:101F8000234640AA394634A8FFF7B3FA0195CDF8A5
:101F9000009023464CAA31461CA8FFF7AAFA0095E8
:101FA000234634AA1CA90846FFF799F80095234652
:101FB0001CAA114610A8FFF745FD0195CDF8009029
:101FC000234610AA11461046FFF793FA0195CDF863
:101FD0000090234610AA1CA904A8FFF78AFA0195CD
:101FE000CDF80090234604AA28A90846FFF781FAF5
:101FF0000195CDF80090234610AA34A964A8FFF7F4
:1020000078FA0195CDF80090234670AA114658A899
:10201000FFF76FFA0095234604AA58A90846FFF770
:102020005EF80095234664AA58A90846FFF757F8BA
:102030000095234664AA58A90846FFF750F8009572
:10204000234658AA64A90846FFF749F80195CDF838
:102050000090234670AA64A90846FFF74AFA009543
:10206000234628AA64A90846FFF739F800952346B5
:1020700028AA64A90846FFF732F8009523465A4675
:10208000514670A8FFF7DEFC0195CDF8009023467D
:1020900070AA11461046FFF72CFA009523464CAA69
:1020A00070A90846FFF71BF80095234640AA70A9BF
:1020B0000846FFF714F80195CDF8009023461CAAB6
:1020C00070A90846FFF715FA08F1FF3323EA08085C
:1020D0004FEAE878043F58AC7CAD2346196857F8BE
:1020E000042FB8F1000F08BF0A4643F8042BAB4297
:1020F000F4D1029B5942043E039B181F54F8042B51
:1021000056F8043F002908BF134640F8043FAC428C
:10211000F4D17DB0BDE8F08F58410500FDFFFCFF14
:102120002DE9F04FE5B003900D46924601F1600BAA
:1021300001F15C0301F18C00002253F8041F0A43F3
:102140008342FAD1561E26EA0206F60F884C4FF05B
:102150000C08CDF80480874F009723465A4659460D
:1021600034A8FFF7C6F9CDF80480009723465A46F5
:1021700034A958A8FFF7BDF9CDF80480009723468D
:102180000AF1300258A90846FFF7B3F9AAF104088A
:102190000AF15C004346002253F8041F0A438342BD
:1021A000FAD1531E23EA0202D30F0293704C0C277C
:1021B0000197DFF8C091CDF80090234634AA51462C
:1021C00028A8FFF796F9009723462A4628A908462B
:1021D000FEF785FF0197CDF80090234628AA114607
:1021E0001CA8FFF786F9009723461CAA114610A8E1
:1021F000FFF728FC0097234610AA11461046FFF768
:1022000021FC0197CDF80090234610AA29464CA83E
:10221000FFF76FF90197CDF80090234610AA28A97F
:1022200004A8FFF766F905F1300A0197CDF8009090
:102230002346524604A910A8FFF75BF900972346EE
:10224000524658A90846FEF74AFF0097234658AA67
:1022500011461046FFF7F6FB0197CDF80090234694
:1022600058AA114640A8FFF744F90097234604AA4C
:1022700040A90846FEF733FF009723464CAA40A921
:102280000846FEF72CFF009723464CAA40A90846B3
:10229000FEF725FF0097234640AA4CA90846FEF703
:1022A0001EFF0197CDF80090234658AA4CA9084676
:1022B000FFF71FF90097234610AA4CA90846FEF71E
:1022C0000EFF0097234610AA4CA90846FEF707FF09
:1022D0000097234628AA594658A8FFF7B3FB019751
:1022E000CDF80090234658AA11461046FFF701F991
:1022F0000097234634AA58A90846FEF7F0FE009737
:1023000023461CAA58A90846FEF7E9FE764204F1C6
:10231000600157AA903451F8043B52F8040F002E84
:1023200008BF03461360A142F5D140AC58A823462C
:10233000196858F8042F002E08BF0A4643F8042BEA
:102340008342F5D1029B5942043D039B181F04F1BF
:10235000900654F8042B55F8043F002908BF134693
:1023600040F8043FB442F4D165B0BDE8F08F00BF3F
:1023700058410500FDFFFCFF2DE9F04F85B000AF8F
:1023800078609B469800F860C31D23F00703ADEB0F
:10239000030D6C46BC60ADEB030DBBF1000F00F00C
:1023A0008280EC460439261F39600818B6460C4670
:1023B000002354F8045F43EA45034EF8043FEB0F53
:1023C0008442F6D1101FACF1040CFA68A2F1040AA1
:1023D000BA689244E046864632460024B14652F836
:1023E000045F2C1B65EB05055EF8046FA41B65F10B
:1023F000000548F8044F05F001045245EFD14E4660
:102400001C1BC846E64600255EF8042F58F8043F1A
:10241000534023405340CEF800300135AB45F3D153
:102420003B68FA6813449E463246002351F8048FF5
:102430005CF8044F002514EB080445F10005E4188E
:1024400045F1000542F8044F2B467145EED17A68FC
:10245000043AF968A1F10408B968414488469446F1
:1024600031460024AE4651F8043F1C1B63EB0305C4
:1024700050F8043FE41A65F100054CF8044F05F0EC
:1024800001044145EFD173461C1B7B68181FFB6894
:10249000184452F8041F56F8043F4B4023404B4069
:1024A00013608242F5D11437BD46BDE8F08F2DE9A7
:1024B000F04FF3B005900C4615460293C94E0C2719
:1024C000009733460A461EA8FFF7BCFA0197C64B91
:1024D000009333462246214612A8FFF70AF83B46EE
:1024E000324612A90846FFF747FF04F1300800976B
:1024F00033464246414606A8FFF7A4FA05F16007B5
:1025000005F15C0305F18C00002253F8041F0A4317
:102510008342FAD1531E23EA0202D30F0493DFF859
:10252000C4924FF00C0BCDF804B0DFF8BCA2CDF88C
:1025300000A04B463A4639464EA8FEF7DAFF04F1B2
:102540006006CDF804B0CDF800A04B463A463146BF
:1025500066A8FEF7CEFF04F15C0304F18C000022B4
:1025600053F8041F0A438342FAD1531E23EA02029E
:10257000D30F03930C2301939B4B0093994B32464B
:1025800031462AA8FEF7B5FF029B0BB3DFF8549241
:102590004FF00C0ACDF804A0DFF84CB2CDF800B033
:1025A0004B462AAA11465AA8FEF7A3FFCDF804A06D
:1025B000CDF800B04B46029A5AA90846FEF799FF9B
:1025C000CDF800A04B465AAA12A90846FFF73AFADE
:1025D000DFF810924FF00C0ACDF804A0DFF808B233
:1025E000CDF800B04B463A4641465AA8FEF781FF67
:1025F000CDF804A0CDF800B04B464EAA5AA9084623
:10260000FEF777FFCDF804A0CDF800B04B46324678
:1026100005F1300136A8FEF76CFFCDF804A0CDF827
:1026200000B04B462AAA36A90846FEF762FFCDF84D
:1026300000A04B465AAA36A90846FEF750FDCDF831
:1026400004A0CDF800B04B4622464EA90846FEF73E
:1026500050FFCDF804A0CDF800B04B462A462AA979
:102660000846FEF746FFCDF800A04B464EAA2AA921
:1026700042A8FFF7E7F9CDF800A04B464EAA2AA9D9
:102680000846FEF72CFD29A941AE0B46002253F85F
:10269000040F0243B342FAD1501E20EA0200C017D1
:1026A000043C4EAE72AF3346A6468C465EF8042F0D
:1026B0001968002808BF0A4643F8042BBB42F5D12D
:1026C000614605AA0DF1A40E844651F8040F52F894
:1026D000043FBCF1000F08BF03460B607245F4D104
:1026E000DFF800814FF00C09CDF80490DFF8F8A076
:1026F000CDF800A043462AAA66A90846FEF7F9FECF
:10270000CDF80490CDF800A043462AAA114606A8A9
:10271000FEF7EFFECDF80490CDF800A043462AAABC
:1027200006A912A8FEF7E5FECDF80490CDF800A0AA
:1027300043465AAA12A90846FEF7DBFECDF80490DC
:10274000CDF800A043464EAA06A95AA8FEF7D1FE2E
:10275000CDF80490CDF800A0434642AA06A9084649
:10276000FEF7C7FECDF80490CDF800A0434636AA88
:1027700011464EA8FEF7BDFECDF80090434606AACE
:102780004EA90846FEF7ABFCCDF8009043464EAA92
:102790005AA90846FEF7A3FCCDF80490CDF800A096
:1027A000434636AA5AA90846FEF7A3FECDF8009084
:1027B000434612AA5AA90846FEF791FC049B5842C8
:1027C0003346196854F8042F002808BF0A4643F816
:1027D000042BBB42F5D1039B5942043D059B181FB6
:1027E00004E000BF58410500FDFFFCFF56F8042B34
:1027F00055F8043F002908BF134640F8043FBE4285
:10280000F4D173B0BDE8F08F2DE9F04FF3B005902F
:102810000D461446171F02F15C003B46002253F898
:10282000041F0A438342FAD1531E23EA0202D30F44
:102830000493AC4E4FF00C08CDF80080334622468E
:1028400021461EA8FFF7FEF8CDF80480A64B0093A2
:1028500033462246214612A8FEF74BFE4346324637
:1028600012A90846FFF788FD04F1300BCDF800806F
:1028700033465A46594606A8FFF7E4F805F1600AC0
:1028800005F15C0305F18C00002253F8041F0A4394
:102890008342FAD1531E23EA0202D30F0393914ECF
:1028A0004FF00C08CDF80480DFF83C92CDF8009092
:1028B0003346524651462AA8FEF71BFECDF8048047
:1028C000CDF80090334652462AA936A8FEF711FEED
:1028D000CDF80480CDF8009033465A4636A9084614
:1028E000FEF707FECDF80080334605F1300236A929
:1028F0000846FEF7F4FBCDF80480CDF8009033468F
:1029000022462AA90846FEF7F4FDCDF8008033469A
:102910002A462AA942A8FFF795F8CDF80080334649
:102920002A462AA90846FEF7DAFBCDF80480CDF83E
:102930000090334652462AA966A8FEF7DAFD29A977
:1029400041AC0B46002253F8040F0243A342FAD1D4
:10295000531E23EA0202D217043D4EAC0DF5CC788B
:102960002046AC463E4696465CF8042F56F8043F97
:10297000BEF1000F08BF134640F8043B4045F3D1B9
:1029800065AE0DF14809B44606A850F8043B5CF862
:10299000042FBEF1000F08BF1346CCF800304845A5
:1029A000F3D105A80DF1A40C51F8042F50F8043F01
:1029B000BEF1000F08BF13460B606045F4D1DFF88D
:1029C00024914FF00C0ACDF804A0DFF81CB1CDF82B
:1029D00000B04B462AAA114606A8FEF78AFDCDF89C
:1029E00004A0CDF800B04B462AAA06A912A8FEF70B
:1029F00080FDCDF804A0CDF800B04B465AAA12A92C
:102A00000846FEF776FDCDF804A0CDF800B04B46A1
:102A10004EAA06A95AA8FEF76CFDCDF804A0CDF881
:102A200000B04B4642AA06A90846FEF762FDCDF863
:102A300004A0CDF800B04B4636AA11464EA8FEF7CA
:102A400058FDCDF800A04B4606AA4EA90846FEF751
:102A500046FBCDF800A04B464EAA5AA90846FEF701
:102A60003EFBCDF804A0CDF800B04B4636AA5AA9DB
:102A70000846FEF73EFDCDF800A04B4612AA5AA923
:102A80000846FEF72CFB039B59422346186857F86B
:102A9000042F002908BF024643F8042B4345F5D113
:102AA000104F07F16002903752F8043B56F8040FBC
:102AB000002908BF03463360BA42F5D1049B59424E
:102AC000059B181F04F1900654F8042B55F8043F99
:102AD000002908BF134640F8043FB442F4D173B054
:102AE000BDE8F08F58410500FDFFFCFF2DE9F04FD8
:102AF000DBB004460E46154602F1600B02F15C03A2
:102B000002F1BC0C002253F8041F0A436345FAD1BA
:102B1000571E27EA0202D20F19D106F16003029371
:102B200006F15C0306F1BC0053F8041F0A4383421C
:102B3000FAD1571E27EA0202D70F14D0043D043CF5
:102B400055F8043F44F8043F6545F9D108E0331FC8
:102B5000043CBC3653F8042F44F8042FB342F9D197
:102B60005BB0BDE8F08F05F190031A460493DFF8DF
:102B7000C8824FF00C09CDF80490DFF8C0A2CDF860
:102B800000A0434631464EA8FEF7B3FC06F13003E1
:102B900019460593CDF80490CDF800A043465A4657
:102BA00042A8FEF7A6FC06F190031A460393CDF85F
:102BB0000490CDF800A04346294636A8FEF799FCBC
:102BC000CDF80490CDF800A04346029A05F13001FB
:102BD0002AA8FEF78EFCCDF8009043464EAA36A9EF
:102BE0000846FEF77CFACDF80090434642AA2AA98F
:102BF0000846FEF774FA36AB42A83A4653F8041B6F
:102C00000A438342FAD1531E934314D52AAB36A903
:102C100053F8042B17438B42FAD17B1EBB4300F1C0
:102C2000868004F160010B46C034002243F8042B77
:102C3000A342FBD194E7804D0C2601967F4F00976D
:102C40002B4636AA114606A8FEF753FC01960097BC
:102C50002B4636AA06A912A8FEF74BFC0196009750
:102C60002B4606AA4EA91EA8FEF743FC0196009724
:102C70002B462AAA11462046FEF73BFC00962B461F
:102C80001EAA114636A8FEF7DDFE00962B4612AAB4
:102C900021462046FEF723FA00962B4636AA214607
:102CA0002046FEF71CFA00962B4622461EA908462F
:102CB000FEF715FA019600972B462AAA1EA9084688
:102CC000FEF717FC04F13008019600972B4612AA74
:102CD00042A94046FEF70DFC00962B4642461EA92F
:102CE0004046FEF7FCF904F19008019600972B4648
:102CF000049A03994046FEF7FCFB60340196009766
:102D00002B465A4602992046FEF7F3FB01960097A0
:102D10002B4606AA41464046FEF7EBFB019600977C
:102D20002B4612AA21462046FEF7E3FB18E7424D48
:102D30000C2700972B46DDF814904A4649464EA8CA
:102D4000FEF780FE0197DFF8F480CDF800802B4677
:102D50004EAA114606A8FEF7CCFB0197CDF80080DD
:102D60002B464EAA06A912A8FEF7C3FB0197CDF881
:102D700000802B4606AA314642A8FEF7BAFB01970F
:102D8000CDF800802B46324631461EA8FEF7B1FB37
:102D90003B462A461EA90846FFF7EEFA0197CDF8F2
:102DA00000802B461EAA11462046FEF7A2FB009784
:102DB0002B4642AA11464EA8FEF744FE00972B462A
:102DC0004EAA21462046FEF78AF904F13006019703
:102DD000CDF800802B464A4612A93046FEF789FB03
:102DE00000972B46224642A90846FEF778F901973C
:102DF000CDF800802B461EAA42A90846FEF779FBB3
:102E000000972B46324642A93046FEF768F90197F3
:102E1000CDF800802B4606AA039904F19000FEF736
:102E200068FB0197CDF800802B4612AA029904F1A5
:102E30006000FEF75EFB93E658410500FDFFFCFFD6
:102E40002DE9F043E3B0074601259540013D05EB30
:102E5000450301EB831CACF1040002AB0DF1C80E7D
:102E6000044654F8046F43F8046B7345F9D132AB50
:102E700062AE50F8044F43F8044BB342F9D16346B5
:102E80000CF1C004002043F8040BA342FBD1DDB1D8
:102E9000C02595400D44C03D8946002602E0C03D56
:102EA0004D4511D0A5F1C004A046224602A908460E
:102EB000FFF71CFE02AA32A90846FFF717FE44F8E6
:102EC000046BA542FBD1EAE7104C0C260196104D8D
:102ED0000095234656AA32A93846FEF70AFB01960A
:102EE000009523464AAA3EA907F13000FEF701FBF0
:102EF00055AA07F15C038C3752F8041F43F8041FEE
:102F00009F42F9D163B0BDE8F08300BF584105008E
:102F1000FDFFFCFF2DE9F04F85B000AFB8600D4616
:102F20007B60B96B8900CB1D23F00703ADEB030D6C
:102F30006C46FC60002A48D002F1FF3AA1F1040B74
:102F400004EB0B09A0F104088844386039E02A1F1B
:102F5000FB68181F5D440446002352F8041F43EA2F
:102F6000410344F8043FCB0FAA42F6D17A68A2F19C
:102F7000040CBA68043A164601460024864651F805
:102F8000040F041B60EB00055CF8040F241A65F1C4
:102F9000000546F8044F05F001044945EFD170469D
:102FA0001C1B52F8041F50F8043F4B4023404B4079
:102FB00013604245F5D10AF1FF3ABAF1FF3F04D060
:102FC0003D68BB6B002BC2D1F5E71437BD46BDE8A9
:102FD000F08F2DE9F047A6B006460F464B4C0C2566
:102FE0000195DFF82C81CDF8008023460A461AA807
:102FF000FEF77FFA07F1300A0195CDF800802346ED
:10300000524651460EA8FEF774FA0195CDF800809D
:1030100023460EAA114602A8FEF76BFA0095234636
:103020003A460EA90846FEF70DFD0195CDF8008041
:1030300023460EAA11461046FEF75BFA009523467A
:103040001AAA0EA90846FEF74AF80095234602AAD6
:103050000EA90846FEF743F8009523460EAA11462E
:103060001046FEF7EFFC2B4622461AA90846FFF74A
:1030700083F90195CDF8008023461AAA11463046FF
:10308000FEF737FA009523460EAA31463046FEF782
:1030900026F8009523460EAA31463046FEF71FF863
:1030A00006F1600907F16001009523460A4648468B
:1030B000FEF7C8FC0195CDF80080234652464946EC
:1030C0004846FEF716FA00952346032202A9084651
:1030D000FFF720FF06F130070095234632460EA980
:1030E0003846FDF7FCFF0195CDF8008023461AAA6B
:1030F00039463846FEF7FDF90095234602AA3946BF
:103100003846FDF7ECFF26B0BDE8F08758410500D2
:10311000FDFFFCFF70B506460B1F021F01F18C007E
:1031200053F8044F42F8044F8342F9D106F190005E
:10313000FFF74FFF06F59075344606F57C7622467C
:10314000903421462846FEF7A5FE214605F1900061
:10315000FFF73FFF05F59075B442F0D170BD70B533
:103160000546164600230A460146FFF7A0F9741EDD
:103170003EB129462846FFF72CFF013CB4F1FF3F42
:10318000F7D170BD38B504460D46FFF722FF022285
:1031900029462046FFF7E3FF032229462046FFF792
:1031A000DEFF092229462046FFF7D9FF20222946C3
:1031B0002046FFF7D4FF102229462046FFF7CFFF15
:1031C00038BD2DE9F04107469046013901268E4071
:1031D000131F021F08F15C0053F8041F42F8041F7C
:1031E0008342F9D1174A07F15C0307F18C0052F8CA
:1031F000041B43F8041F8342F9D107F190053946B7
:103200002846FFF7E6FE022E19D907F59074033E13
:10321000760806EBC60307F5107606EB4316424622
:10322000A4F190012046FEF77BFF294604F19000AF
:10323000FFF7CFFE04F590749035B442EFD1BDE8AE
:10324000F08100BFB84105002DE9F84F00AF93466B
:10325000D7F828804FEA880909F1070222F007020F
:10326000ADEB020DB8F1000F41D082460C466D4621
:10327000043B0A1FA5F1040C99441646002053F89C
:10328000041F081A61EB010156F804EFB0EB0E00C1
:1032900061F100014CF8040F01F001004B45EED143
:1032A00038F0404126D0231F03EB8101002352F860
:1032B000040F03438A42FAD1591E21EA030100296F
:1032C000B4BF00210BF001014842043C043DAAF1C7
:1032D000040A0026013954F8043F0B4055F8042F26
:1032E000024013434AF8043F0136B045F3D8BD46C7
:1032F000BDE8F88F0846E8E700B583B00A463030ED
:103300000C230093034B0146FFF79EFF03B05DF8CB
:1033100004FB00BF58410500F8B50F46C2F3401149
:1033200002F01F0C034600F19004002243F8042B26
:10333000A342FBD18C374FF0010E05E00EF1010ED8
:103340009037BEF1110F12D08CEA0E06F6B2013E94
:10335000F617A7F19004021F52F8045F54F8043FD7
:10336000002E08BF2B461360BC42F5D1E6E7FFF7FD
:10337000C3FFF8BD2DE9F043ADF6941D0546174691
:103380001E466846FFF7C6FE344BA3FB062323F018
:10339000030202EB9302B21A541CB61A36D022462C
:1033A000711E3846FDF750FE4FF0FF33A340052154
:1033B00020EA0300FDF771FE024669462846FFF742
:1033C000ABFF4FF006094FF00508052429462846B3
:1033D000FFF7FFFD013CF9D1741F27D04A46B11F0A
:1033E0003846FDF731FE414600F03F00FDF755FE3F
:1033F000024669460DF51060FFF78EFF0DF510626D
:1034000029462846FEF746FD2646DEE738784FF087
:10341000FF33A340DB43052103EA4000FDF73DFEF7
:10342000024669462846FFF777FF13E038784000E8
:10343000052100F03E00FDF730FE024669460DF51D
:103440001060FFF769FF00230DF51062294628463A
:10345000FFF72DF80DF6941DBDE8F083CDCCCCCC54
:10346000F8B50F46C2F3001102F00F0C034600F14D
:103470009004002243F8042BA342FBD18C374FF079
:10348000010E8CEA0E06F6B2013EF617A7F1900483
:10349000021F52F8045F54F8043F002E08BF2B4669
:1034A0001360BC42F5D10EF1010E9037BEF1090F49
:1034B000E7D1FFF721FFF8BD2DE9F043ADF2145D30
:1034C000054690461E460C1F684624AA54F8047F01
:1034D00040F8047B8242F9D124A8FFF77AFD6A46BE
:1034E00024A948A8FEF7D6FC24A96CA8FFF771FD13
:1034F00024AA48A990A8FEF7CDFC48A9B4A8FFF7D4
:1035000068FD48AA6CA9D8A8FEF7C4FC6CA9FCA861
:10351000FFF75FFD06F003035C1CF61A35D0224668
:10352000711E4046FDF790FD4FF0FF33A34004218C
:1035300020EA0300FDF7B1FD024669462846FFF781
:103540008FFF4FF005090427042429462846FFF77A
:1035500040FD013CF9D1341F28D04A46711F404636
:10356000FDF772FD394600F01F00FDF796FD02469B
:1035700069460DF59060FFF773FF0DF590622946DF
:103580002846FEF787FC2646DEE798F800004FF055
:10359000FF33A340DB43042103EA4000FDF77DFD38
:1035A000024669462846FFF75BFF14E098F80000E2
:1035B0004000042100F01E00FDF76FFD0246694641
:1035C0000DF59060FFF74CFF00230DF59062294642
:1035D0002846FEF76CFF0DF2145DBDE8F083F8B5E8
:1035E0000C4623FA02F101F001014FF0FF3505FA14
:1035F00002F223EA020562EA03026B1E13404FEA5D
:10360000E37C0F4F07F6BC42002BB4BF2B466B1E6A
:1036100003EB430304EB4314043C051F07F61C575C
:1036200054F8046F52F8043FBCF1000F08BF334652
:1036300045F8043FBA42F3D1FFF75EFEF8BD00BF84
:103640005841050010B5C8B00446014624A8FFF74C
:1036500099FD24A96846FFF795FD01216846FFF70B
:103660004BFE214624A8FEF751F824A90846FEF790
:103670004DF8694624A8FEF7E3F848B010BD2DE9DF
:10368000F04FC3B004460D4617460393101F02F1D6
:103690005C010346002253F8046F32438B42FAD197
:1036A000561E26EA0202D20F2CD105F1600A05F15E
:1036B0005C0305F1BC0C53F8046F32436345FAD147
:1036C000561E26EA0202D60F28D0231F50F8042FD8
:1036D00043F8042F8842F9D1B54B03F160050C2261
:1036E0000092039A294604F16000FFF7ADFD2946D8
:1036F00004F18C03BC3451F8042B43F8042FA3428B
:10370000F9D108E02B1F043CBC3553F8042F44F8D2
:10371000042FAB42F9D143B0BDE8F08F05F190031F
:103720001A460493DFF888824FF00C09CDF8049014
:10373000DFF880B2CDF800B04346394636A8FDF731
:10374000D8FE07F1300319460593CDF80490CDF863
:1037500000B0434652462AA8FDF7CBFECDF80090B4
:103760004346039A2AA90846FFF76EFDCDF800905C
:1037700043462A4636A90846FDF7B1FC05F1300B51
:10378000CDF8009043465A462AA90846FDF7A7FC03
:1037900036AB42A8324653F8041B0A438342FAD19F
:1037A000531E934313D52AAB36A953F8042B164363
:1037B0008B42FAD1731EB3437DD404F160010B46F2
:1037C000C034002243F8042BA342FBD1A3E7784E78
:1037D0000C270197DFF8DC81CDF80080334636AA4C
:1037E000114606A8FDF785FE0197CDF80080334607
:1037F00036AA06A912A8FDF77CFE0197CDF8008035
:10380000334606AA29461EA8FDF773FE0197CDF898
:10381000008033462AAA11462046FDF76AFE00972B
:1038200033461EAA114636A8FEF70CF90097334618
:1038300012AA21462046FDF752FC0097334636AACD
:1038400021462046FDF74BFC0097334622461EA931
:103850000846FDF744FC0197CDF8008033462AAABC
:103860001EA90846FDF745FE04F130050197CDF885
:103870000080334612AA59462846FDF73AFE0097C3
:1038800033462A461EA92846FDF729FC0197CDF8A4
:103890000080334606AA049904F19000FDF729FE42
:1038A0000197CDF80080334612AA514604F160001A
:1038B000FDF71FFE2FE73E4D0C2600962B46DDF848
:1038C00014B05A46594606A8FEF7BCF804F1900A0F
:1038D0000196DFF8E080CDF800802B4606AA11465D
:1038E0005046FDF706FE04F160090196CDF8008010
:1038F0002B4606AA51464846FDF7FBFD0196CDF83A
:1039000000802B465246394612A8FDF7F2FD01967B
:10391000CDF800802B463A4639461EA8FDF7E9FD52
:1039200033462A461EA90846FEF726FD0196CDF825
:1039300000802B461EAA11462046FDF7DAFD0096B0
:103940002B4612AA114606A8FEF77CF800962B46D5
:1039500006AA21462046FDF7C2FB04F13007019676
:10396000CDF800802B465A4649463846FDF7C1FD42
:1039700000962B46224612A90846FDF7B0FB019699
:10398000CDF800802B461EAA12A90846FDF7B1FD0E
:1039900000962B463A4612A93846FDF7A0FB009642
:1039A0002B46039A49464846FFF74EFCB3E600BF54
:1039B00058410500FDFFFCFF38B515460124944031
:1039C000013C0C4000D138BD1A46013C04EB4404D4
:1039D00000EB841021FA05F505F001030146FFF71D
:1039E0004EFEF0E72DE9F04F89B0079093461C4654
:1039F000149B1598169F26680D4655F8049B129A3D
:103A00000732D2080692411C01228A40013A0392F1
:103A10005A1E22EA03024FEAD27A8AF00102991A68
:103A20000491131805931A463046FDF719FB00FA66
:103A30000AF03946039A1040FDF72FFB0290D4F8A4
:103A40000480B8F1000F1AD00834059A0499404652
:103A5000FDF706FB00FA0AF03946039B1840FDF714
:103A60001CFB01900BF1FF3B4B463A460299139821
:103A7000FFF7A2FFBBF1010F2ED9012614E0043499
:103A8000069B06EB0308E0E7069B984411E009F16A
:103A900060094B463A4601991398FFF78DFF0136AE
:103AA000B3451BD0029B01932368002BECD0043458
:103AB0009846059A04994046FDF7D2FA00FA0AF0B2
:103AC0003946039B1840FDF7E8FA02902B68002B5B
:103AD000DDD004359946DCE7019B02932B6863B186
:103AE0003A4602991398FFF767FF7A1E13990798D1
:103AF000FFF7A6F909B0BDE8F08F09F16003EFE721
:103B00002DE9F04F83B002AF06468C469646D7F8B3
:103B100028904FEA890B0BF1070222F00702ADEB68
:103B2000020D0DF10808ADEB020D02A9ADEB020D7F
:103B300002AABBF1000F1FD00BF1FF34DC44254675
:103B400000201CF801AD4AEA002025F0030A41F8E4
:103B50000A00013DB5F1FF3FF3D10EEB0B0500204C
:103B600015F801CD4CEA002024F0030C42F80C00BB
:103B7000013CB4F1FF3FF3D1CDF800904046FDF792
:103B8000AEFA39F0404924D0A8F104014FEA89097E
:103B9000A9F1040444440B46002253F8040F0243E5
:103BA0009C42FAD1501E20EA0200C00F464511D0B7
:103BB000A9F10409C84402E0043641450AD051F88D
:103BC000042F3346341D03F8012B120AA342FAD105
:103BD000F2E7012080F001000437BD46BDE8F08F18
:103BE0002DE9F04F8BB000AF78600D463A60FB6175
:103BF000D7F850B04FEA8B01B960CB1D23F0070313
:103C0000ADEB030DBBF1000F6ED0EA461346126810
:103C1000BA617B61A3F1040888444FF00009C7F83A
:103C200010B0C7F80CA008E00123013B4AF823209C
:103C300009F10109CB4529D0FD682968FB6903FB1F
:103C400001FEBB69AEFB0323521843F100031A4681
:103C5000BBF1010FE8D9AAF104067C6954F8040FFE
:103C6000A0FB0E0155F804CF002312EB0C0243F128
:103C70000003C7E908018018796A43EB01010A468D
:103C800046F8040F4445E9D13B69CEE7AAF10404A4
:103C90003B681D1F7B68191FBB68043B9A44224682
:103CA00000238C460E4652F8040FC01A60EB000148
:103CB00055F8043FC01A61F1000146F8040F01F005
:103CC00001035245EFD161465E427A68151FBA681A
:103CD00015445A1E51F8043F134054F8040F304065
:103CE00003430B60A942F5D12C37BD46BDE8F08FE8
:103CF0002DE9F04F8DB000AFF860B9607A607B625B
:103D0000D7F858B04FEA8B003861C31D23F0070382
:103D1000ADEB030DBBF1000F00F08880EA461346BF
:103D200012683A62FB61A3F1040880440D464FF02B
:103D30000009C7F818B0C7F814A008E00123013B38
:103D40004AF8232009F10109CB4529D07D6929686A
:103D50007B6A03FB01FE3B6AAEFB0323521843F16F
:103D600000031A46BBF1010FE8D9AAF10406FC6969
:103D700054F8040FA0FB0E0155F804CF002312EBFA
:103D80000C0243F10003C7E90A018018F96A43EB0A
:103D900001010A4646F8040F4445E9D1BB69CEE764
:103DA0003B691A1FBB681A44AAF10400043B03EBE9
:103DB000C9090146002352F8046F51F8044F002549
:103DC000A41945F10005E41845F100050C602B46E7
:103DD0004A45F0D17A68A2F1040CFA68043A3969CC
:103DE00004398A44164601460024AE4651F8043F81
:103DF0001C1B63EB03055CF8043FE41A65F1000546
:103E000046F8044F05F001045145EFD173461C1BE1
:103E1000FB681D1F3B691D4452F8041F50F8043F06
:103E20004B4023404B401360AA42F5D13437BD4686
:103E3000BDE8F08F2DE9F04100AF4FEA820E0EF1A0
:103E4000070323F00703ADEB030D056805F001053B
:103E500062B3EC46031FACF1040603EB0E083446D4
:103E6000002053F8042F40EA420044F8040FD00F1A
:103E70004345F6D10439AEF1040EF444002256F85D
:103E8000043F9A1A63EB030351F8044F121B63F1CA
:103E9000000303F001026645F1D1831ADB4303F00E
:103EA000020343EA0500BD46BDE8F0811046F4E791
:103EB000F0B58FB005460F460C2300931E4B1F4AEA
:103EC00002A8FFF78DFE05F130042A462E4605F1C3
:103ED0002F00831A23F003010DF1380C614403F025
:103EE0000303DB0051F8301C21FA03F302F8013B15
:103EF000A242EED10C2300930F4B104A07F1300180
:103F000002A8FFF76DFE60355F36331B23F0030216
:103F10000EA90A4403F00303DB0052F8302C22FA06
:103F200003F304F8013BAC42EFD10C22034902A891
:103F3000FFF780FF0FB0F0BDFDFFFCFF584105000B
:103F40002DE9F04F87B000AF7860B9601046FA6095
:103F50007C6C651CAD00EA1D22F00702ADEB020D82
:103F60006E46D0F8008014B30A1FA6F1040CA5F128
:103F7000040E9644002052F8049F0021E8FB09013A
:103F80004CF8040F08467245F5D1A4463268396CE6
:103F900002FB01F246F82C00196879613B611D446F
:103FA000083D4FF0010A3C6006EB840B37E02046E9
:103FB000A446EBE772681A443260544556D014B9EF
:103FC0003868034623E0FB6853F82AE002E0FB6808
:103FD00053F82AE0BB68A3F1040C321F00231846F3
:103FE000B146A8465CF8045F52F8046F00218019BE
:103FF00041F10001EEFB05011060084601339C42CF
:10400000F0D84E464546002C14BF234601233268A3
:10401000396C02FB01F246F823000AF1010A9446CA
:104020007B69A2FB03233168521843F100039E46CB
:10403000012CBFD930463969B04651F8042FA2FB94
:104040000C2312EB0E0243F100034668921943F170
:10405000000340F8042B9E46A942EED14646DBF809
:10406000003073444BF8043C5445B0D13AF0404121
:104070000AD0043E7B68043B06EB810156F8042F0E
:1040800043F8042F8E42F9D11C37BD46BDE8F08FAE
:104090002DE9F04F85B000AFF86016467B60D7F889
:1040A00038B0FD6B6A1CBA6094003C60E31D23F0DD
:1040B0000703ADEB030D6C46ADEB030DE84633682B
:1040C0004FEAE37983EAE37AAAEBE37A2B464A469E
:1040D0002046FDF739F92B46524621462046FDF78A
:1040E0006AF909EA0A09A0EB090044F82500DBF89F
:1040F00000304FEAE37983EAE37AAAEBE37A2B46CE
:104100004A4679684046FDF71FF92B46524641461C
:104110004046FDF750F909EA0A09A0EB090048F802
:104120002500BB68424621462046FDF728F9226853
:1041300075B12146F86804383B68043B1C44930F72
:1041400051F8042F43EA820340F8043FA142F6D11C
:10415000D417336883EAE273A3EBE2733360DBF8CE
:10416000003083EAE273A3EBE272CBF800202B4627
:104170002246F9680846FDF7E7F820461437BD46A1
:10418000BDE8F08F2DE9F04F83B000AF38609B465B
:10419000D7F830A07E6BB300073323F00703ADEBF5
:1041A000030DE846ADEB030DE94682EAE275A5EBA7
:1041B000E2753346D2174046FDF7C6F8044633464B
:1041C0002A4641464046FDF7F6F8786025408AEADF
:1041D000EA74A4EBEA7433464FEAEA725946484659
:1041E000FDF7B2F883463346224649464846FDF776
:1041F000E2F87B6803449A4604EA0B0433464A46D5
:1042000041463868FDF7BBF85044401B001B0C3793
:10421000BD46BDE8F08F2DE9F04F83B000AF834677
:1042200079609A4603F101084FEA880808F107030C
:1042300023F00703ADEB030DE946BAF1000F52D0AE
:104240000B1FA9F10404A8F104051D44002053F834
:10425000046F0021E2FB060144F8040F0846AB425C
:10426000F5D1534649F82300ABF1040CA9F1040140
:10427000A8F1040EDE440E466346002053F8044FB6
:10428000241A64EB040556F8040F241A65F100059E
:10429000346005F001007345F0D1C0F1000EBAF1B1
:1042A000000F19D07B681E1FA8F10808C84400241D
:1042B00056F8043F0EEA030351F8049F002514EB5F
:1042C000090445F10005E41845F100054CF8044FD8
:1042D00005F001044145EBD1101A4BF82A000C37C8
:1042E000BD46BDE8F08F50465346BBE72DE9F04F81
:1042F000A9B000AF054688467A603B60D7F8C84051
:10430000D7F8CC306BB1B8F1000F25D07B681BB368
:10431000D7F8CC6003EBC30A06EB0A2A4FF000097A
:1043200012E002EBC2036A46A2EB03239D46C7F8E4
:10433000CCD0E8E709F1900949463046FEF7EAFE9D
:1043400006F51066564507D0D8F80030002BF1D09E
:1043500008F104089946EFE7E31DDB08BB60D7F8D6
:10436000008058F8046B604BA3FB042323F0030A7E
:104370000AEB9303A4EB030A0AF101024FF0010BCD
:104380000BFA02FB0BF1FF3BB4EB0A041BD004F168
:10439000FF3949463046FCF757FE052100EA0B007D
:1043A000FCF77BFE0246D7F8CC102846FEF7B4FF98
:1043B0007B6803EBC303D7F8CC2002EB0322012474
:1043C0005346924646E0307805210BEA4000FCF760
:1043D00064FE0246D7F8CC102846FEF79DFFC7F8CA
:1043E0000080012444E0BB681E44FA684946304618
:1043F000FCF72AFE052100EA0B00FCF74EFE024600
:10440000214607F11000FEF787FF002307F1100295
:1044100029462846FEF74BF804F51064A24507D05C
:10442000D8F80030002BDED008F104081E46DCE787
:10443000052429462846FEF7CCFD013CF9D1A9F117
:1044400005024FF03F0B0523B9F1040F0ED0914642
:10445000D7F800807A68A242EAD904EBC404D7F8FE
:10446000CC2002EB04240133FB60D9E74FF03F0B73
:104470007B68A34234D904EBC404D7F8CC2002EB08
:10448000042403EBC30802EB08284FF0050A4FF0A1
:104490000009C7F80C80D7F8008019E0BB681E44FB
:1044A000307851460BEA4000FCF7F7FD0246214602
:1044B00007F11000FEF730FF4B4607F110022946C6
:1044C0002846FDF7F4FF04F51064FB68A34207D00B
:1044D000D8F80030002BE1D008F104081E46DFE7D1
:1044E000A437BD46BDE8F08FCDCCCCCC70B59AB02A
:1044F00005460C460C230093154B164A0EA8FFF7F1
:104500006FFB05F130062A4605F12F018B1A23F0C7
:1045100003001AAD284403F00303DB0050F8300C0D
:1045200020FA03F302F8013BB242EFD1094D0C2609
:104530000096074B2A4604F1300102A8FFF750FB12
:104540003246294602A8FFF775FC1AB070BD00BFBD
:10455000FDFFFCFF58410500F0B583B004460D4651
:104560006030094E0C27009733460A460146FEF795
:104570006BFE04F19000009733462A460146FEF791
:1045800063FE03B0F0BD00BF58410500F8B50F460B
:10459000C2F3401102F01F0C034600F59074002294
:1045A00043F8042BA342FBD107F58E774FF0010EA1
:1045B00006E00EF1010E07F59077BEF1110F12D053
:1045C0008CEA0E06F6B2013EF617A7F59074021FAC
:1045D00052F8045F54F8043F002E08BF2B461360C6
:1045E000BC42F5D1E5E7FFF7B7FFF8BDF8B50F46D8
:1045F000C2F3001102F00F0C034600F59074002284
:1046000043F8042BA342FBD107F58E774FF0010E40
:104610008CEA0E06F6B2013EF617A7F59074021F5B
:1046200052F8045F54F8043F002E08BF2B46136075
:10463000BC42F5D10EF1010E07F59077BEF1090FDE
:10464000E6D1FFF789FFF8BDF8B50C4623FA02F171
:1046500001F001014FF0FF3505FA02F223EA0205ED
:1046600062EA03026B1E13404FEAE37C0E4F07F62B
:104670001C52002BB4BF2B466B1E03EB430304EB11
:104680008314043C051F07F6DC5754F8046F52F8F6
:10469000043FBCF1000F08BF334645F8043FBA425F
:1046A000F3D1FFF759FFF8BD58410500F0B583B0CD
:1046B00004460D461A4E0C27009733460122FEF79A
:1046C000C3FD00973346012205F1300104F13000AB
:1046D000FEF7BAFD00973346012205F1600104F1AF
:1046E0006000FEF7B1FD00973346012205F190010D
:1046F00004F19000FEF7A8FD00973346012205F172
:10470000C00104F1C000FEF79FFD0097334601226F
:1047100005F1F00104F1F000FEF796FD03B0F0BDE5
:104720005841050008B500F590700146FFF7BEFF3F
:1047300008BD2DE9F04182B004460D461646214FD2
:104740004FF00C08CDF800803B46FDF77BF9CDF823
:1047500000803B4606F1300205F1300104F13000E3
:10476000FDF770F9CDF800803B4606F1600205F1D7
:10477000600104F16000FDF765F9CDF800803B466B
:1047800006F1900205F1900104F19000FDF75AF94D
:10479000CDF800803B4606F1C00205F1C00104F1EE
:1047A000C000FDF74FF9CDF800803B4606F1F0025E
:1047B00005F1F00104F1F000FDF744F902B0BDE8A5
:1047C000F08100BF584105002DE9F04182B0044658
:1047D0000D461646204F4FF00C08CDF800803B46A2
:1047E000FCF77DFCCDF800803B4606F1300205F178
:1047F000300104F13000FCF772FCCDF800803B463C
:1048000006F1600205F1600104F16000FCF767FC4D
:10481000CDF800803B4606F1900205F1900104F1CD
:104820009000FCF75CFCCDF800803B4606F1C0022E
:1048300005F1C00104F1C000FCF751FCCDF8008087
:104840003B4606F1F00205F1F00104F1F000FCF73F
:1048500046FC02B0BDE8F08158410500F0B5A7B0B4
:1048600006460D460C2300933F4B404A30311AA8B0
:10487000FFF7B6F906F130043246374606F12F004D
:10488000831A23F003010DF1980C614403F0030334
:10489000DB0051F8301C21FA03F302F8013BA2427D
:1048A000EED10C230093304B304A29461AA8FFF76B
:1048B00097F960365F373B1B23F0030226A90A44B1
:1048C00003F00303DB0052F8302C22FA03F304F860
:1048D000013BB442EFD1244F244C0C2600963B46BA
:1048E000224605F1600102A8FFF77AF900963B46DF
:1048F000224605F190010EA8FFF772F932462146D3
:1049000002A8FFF797FA0546324621460EA8FFF7A0
:1049100091FA0DAA02AB19AE002152F8044F2143BF
:104920009642FAD14C1E24EA0101CC0F05EAE1714E
:10493000013C04400C4303F13006002253F8041BF1
:104940000A439E42FAD1531E23EA0202D30F00EA21
:10495000E270013B2B40034303F0010304F002002B
:10496000184327B0F0BD00BFFDFFFCFF5841050014
:104970002DE9F0419AB0064688460C230093534B2C
:10498000534A30310EA8FFF72BF906F130043246B6
:10499000374606F12F00831A23F003011AAD29448C
:1049A00003F00303DB0051F8301C21FA03F302F893
:1049B000013BA242EFD10C230093444B444A4146B1
:1049C00002A8FFF70DF906F1600507F15F010B1B67
:1049D00023F003021AA8024403F00303DB0052F899
:1049E000602C22FA03F304F8013BAC42EFD10C2314
:1049F0000093364B364A08F190010EA8FFF7F0F805
:104A000006F1900407F18F014B1B23F003021AA853
:104A1000024403F00303DB0052F8302C22FA03F3C4
:104A200005F8013BA542EFD10C230093274B284A00
:104A300008F1600102A8FFF7D3F8C036BF373B1B6F
:104A400023F003021AA90A4403F00303DB0052F81F
:104A5000602C22FA03F304F8013BB442EFD11C4C62
:104A60000C22214602A8FFF7E5F905460C22214653
:104A70000EA8FFF7DFF90DAA02AB19AE002152F81C
:104A8000044F2143B242FAD14C1E24EA0101CC0F5B
:104A900005EAE171013C04400C4303F130060022B9
:104AA00053F8041B0A43B342FAD1531E23EA02020D
:104AB000D30F00EAE270013B2B40034303F00103F4
:104AC00004F0020018431AB0BDE8F081FDFFFCFFBE
:104AD000584105002DE9F04F83B002AF06468C46E1
:104AE0009646D7F828904FEA890B0BF1070222F07F
:104AF0000702ADEB020D0DF10808ADEB020D02A9A6
:104B0000ADEB020D02AABBF1000F1FD00BF1FF3479
:104B1000DC44254600201CF801AD4AEA002025F0BF
:104B2000030A41F80A00013DB5F1FF3FF3D10EEB56
:104B30000B05002015F801CD4CEA002024F0030CF1
:104B400042F80C00013CB4F1FF3FF3D1CDF80090E6
:104B50004046FCF777FF39F0404924D0A8F1040122
:104B60004FEA8909A9F1040444440B46002253F892
:104B7000040F02439C42FAD1501E20EA0200C00FEB
:104B8000464511D0A9F10409C84402E00436414564
:104B90000AD051F8042F3346341D03F8012B120AB2
:104BA000A342FAD1F2E7012080F001000437BD46AC
:104BB000BDE8F08F2DE9F04791469A46089C651EA6
:104BC00051F8253004F18042023A51F822605AF837
:104BD00025705AF82220032C24D0A4F1020E01EBF8
:104BE0008E0C0AEB8E0E01F1040843EA0704651EE1
:104BF00025EA040483EA060505EAE4756B4082EAC7
:104C0000070505EAE4756F405CF8045D754005EA48
:104C1000E4756E405EF8045D554005EAE474624058
:104C2000C445E2D143EA070E0EF1FF3828EA0E0828
:104C30004FEA1E4CCCF10004E41704F01005B8F163
:104C4000000FB4BFA84605F10108002C14BF65464B
:104C500075464FEA152CCCF10004E41704F0080E59
:104C6000F044002C08BFAC464FEA1C156C42E41718
:104C700004F0040EF044002C14BF2C4664464FEAA6
:104C8000940CCCF1000E4FEAEE7E0EF00205454486
:104C9000BEF1000F18BF644605EB5405C5F12004B2
:104CA00009680160C5F11F0121EA0401C943C90F68
:104CB000494204F01F0405F01F050E40EE40A340DA
:104CC00033434360DAF80030C9F800300A40EA4064
:104CD000A7401743C9F80470BDE8F0872DE9F04FED
:104CE00095B002AFB8607B60D7F870804FEA880358
:104CF000FB60073323F00703ADEB030D0DF1080A4A
:104D0000ADEB030D02AE4FEA4803FB614FEAC80367
:104D1000BB616B46A3EBC8039D4602AB7B626B464F
:104D2000A3EBC8039D4602AB3B626B46A3EBC803F3
:104D30009D460DF1080938F040447C6114D00B1FEA
:104D4000AAF10401A00003EB840553F8044F41F8D5
:104D5000044FAB42F9D1131F321F184453F8041FFC
:104D600042F8041F8342F9D1BB699C08032B07D981
:104D70007A6A0023194642F8041B01339C42FAD890
:104D80007A6A01231360BB69032B07D93A6A0023AF
:104D9000194642F8041B0133A342FAD33B6A4FEA97
:104DA00088123A606A4B1146A3FB01131B093B6151
:104DB0001D2A66D97B6909EB8305043D4FF0000B82
:104DC00004E00BF1010B3B699B455AD2CDF8008002
:104DD000334607F13802514607F14000FFF7EAFE7B
:104DE0001E2307F1380207F1400107F12800FCF704
:104DF00036FACDF8048007F12C030093334607F10F
:104E0000280251464846FFF743F9CDF8048007F1E0
:104E100034030093334607F1300251463046FFF722
:104E200037F97B694BB1A9F10403AAF1040253F8E5
:104E3000041F42F8041FAB42F9D1FB690193FB6ADE
:104E400000933B6ABA6A796A4846FFF79BF9FA69A8
:104E500001927B6B0093386A03463A6B796AFFF7DD
:104E600091F9BB69032BACD9A9F104017B6A1A1F24
:104E7000002351F8040F42F8040F01339C42F8D884
:104E80009FE7334B39680A46A3FB022323F00F0246
:104E9000A2EB1313A1EB43033246514607F128005E
:104EA000FCF7DDF9FB6901937B6B00933B6A3A6B7E
:104EB000796ABC682046FFF765F94FEAE07EB8F1F1
:104EC000000F43D0FB68043B234479680439A4F104
:104ED000040CBA6994440E460024814620460D46CF
:104EE00056F8042F0EEA020253F8044F002100196D
:104EF00041F10001801841F10001186008469C450D
:104F0000EED10C4629464C4462421443AAF10405F2
:104F10007B68181FFB68184451F8043F234045F88C
:104F2000043F8142F8D14346D21751465046FCF720
:104F30000BFABB68FA6813441846434652460146CA
:104F4000FCF71DFA4C37BD46BDE8F08F4242EAE758
:104F500089888888F0B593B00446114D05F56066E0
:104F60000827009705F55E6332460DEB0700FFF753
:104F7000B5FE00974FF0FF3332460DEB0701204698
:104F8000FEF7B6FE01974FF0FF330093334605F569
:104F9000626221462046FCF7ACFA13B0F0BD00BFB8
:104FA000584105002DE9F04F8FB002AF92469300B3
:104FB000073323F00703ADEB030D0DF10808ADEB4C
:104FC000030D02AEADEB030D02ABFB6032F04044CB
:104FD000BC6015D0031FA8F104022046A40003EB17
:104FE000800553F8040F42F8040FAB42F9D10B1FB0
:104FF000321F181953F8041F42F8041F8342F9D1D5
:105000004FEA8A123A603A4B1146A3FB01131B097F
:105010007B601D2A4ED9FB68BA6803EB8204043C0E
:105020004FF00009CB4608E0306805EA5005A94476
:105030000BF1010B7B689B453ED2CDF800A03346B7
:1050400007F12002414607F12800FFF7B3FD1E23B8
:10505000009307F1200307F1280207F110014846E9
:10506000FCF7BEF98146CDF804A007F114030093C4
:10507000334607F110024146F868FFF709F8054684
:10508000CDF804A007F11C030093334607F1180282
:1050900041463046FEF7FCFFBB68002BC4D0FB68DE
:1050A000043BA8F1040253F8041F42F8041FA34272
:1050B000F9D1B9E74FF000090D4B39680A46A3FB57
:1050C000022323F00F02A2EB1313A1EB430300937F
:1050D0003346424607F110014846FCF781F980F05B
:1050E000010000F001003437BD46BDE8F08F00BF7D
:1050F0008988888808B54B1E23EA0101C943C90F76
:10510000FEF7FAF808BD70B40A1F041F01F15C0530
:10511000134653F8046F44F8046FAB42F9D11346B9
:10512000002453F8046F3443AB42FAD1631E23EAE0
:105130000404E417084D5C3001F12C0655F8041BFB
:1051400052F8043F002C08BF0B4640F8043FB2421F
:10515000F4D170BC704700BFB841050010B50446DB
:10516000FCF7C6FC231F5C34002253F8041F0A43DB
:10517000A342FAD1531E23EA020240EAD27010BDC4
:105180002DE9F043A7B0044600F1600900F15C028C
:1051900000F18C01002352F8040F03438A42FAD134
:1051A00003F1FF3828EA03084FEAD8782A4D0C2685
:1051B00001962A4F00972B464A4649461AA8FCF703
:1051C00098F9019600972B464A461AA90846FCF71B
:1051D00090F9019600972B461AAA11461046FCF743
:1051E00088F900962B4602221AA90846FDF792FE7E
:1051F000019600972B462246214602A8FCF779F932
:10520000019600972B46224602A90846FCF771F941
:1052100000962B461AAA02A90846FCF713FC04F1D3
:105220003001019600972B460A460EA8FCF761F95B
:1052300002AB0EAA1446002053F8041B52F8045B7C
:1052400069400843A342F7D1431E23EA000048EA1D
:10525000D07027B0BDE8F08358410500FDFFFCFF8A
:1052600038B50B1F01F15C05002253F8044F2243AF
:10527000AB42FAD1531E93430AD5431E00F15F019E
:10528000002203F8012F8B42FBD14023037038BD6D
:10529000FEF70EFEFBE770B506460B1F01F15C053D
:1052A000002253F8044F2243AB42FAD1531E9343DA
:1052B0000AD5731E06F12F01002203F8012F8B423D
:1052C000FBD1C023337070BD3046FFF70FF90301E7
:1052D00003F020033278134363F07F033370F2E767
:1052E00008B5FCF7D7FD08BD08B50023FDF7DFF8CA
:1052F00008BD08B5FCF714FF08BD08B5FDF784FA32
:1053000008BD08B5FDF765FE08BD08B5FCF798FABD
:1053100008BD43B9034600F19001002243F8042B75
:105320008B42FBD1704710B5FEF7C6F810BD30B404
:10533000021F043900F15C05002052F8043F51F8C7
:10534000044F63401843AA42F7D1431E23EA0000EA
:10535000C00F30BC704700F15C0300F18C010020ED
:1053600053F8042F10438B42FAD1431E23EA000066
:10537000C00F704700487047984F0500031F00F1A9
:105380005C01002053F8042F10438B42FAD1431ED6
:1053900023EA0000C00F704700487047984F05008F
:1053A00008B5FEF74FF908BD70B5A4B0021F6B46F3
:1053B00018AD114651F8044F43F8044BAB42F9D1F4
:1053C00000F15C051346002153F8044F2143AB4222
:1053D000FAD14B1E23EA0101C9170A4D17AC00F19F
:1053E0002C0655F8040B52F8043F002908BF034669
:1053F00044F8043FB242F4D16846FEF723F924B0E2
:1054000070BD00BFB841050008B54B1E23EA01017D
:10541000C943C90FFFF7A0F808BD70B40C1F021FE5
:10542000BC31234653F8045F42F8045F8B42F9D144
:105430002346002253F8045F2A438B42FAD1551EBB
:1054400025EA0202D517094E06F16002BC30C036CB
:1054500052F8041B54F8043F002D08BF0B4640F8D7
:10546000043FB242F4D170BC704700BF5841050000
:1054700038B50B1F01F1BC05002253F8044F22433D
:10548000AB42FAD1531E93430AD5431E00F1BF012C
:10549000002203F8012F8B42FBD14023037038BD5B
:1054A000FFF766FAFBE770B506460B1F01F1BC0576
:1054B000002253F8044F2243AB42FAD1531E9343C8
:1054C0000AD5731E06F15F01002203F8012F8B42FB
:1054D000FBD1C023337070BD3046FFF7BFF9030125
:1054E00003F020033278134363F07F033370F2E755
:1054F00030B4021F043900F1BC05002052F8043F0B
:1055000051F8044F63401843AA42F7D1431E23EADF
:105510000000C00F30BC704700F1BC0300F58E7175
:10552000002053F8042F10438B42FAD1431E23EA84
:105530000000C00F70470148704700BF28500500A9
:10554000031F00F1BC01002053F8042F10438B42CD
:10555000FAD1431E23EA0000C00F7047004870478D
:105560002850050008B5FFF7DDF808BD30B4021F6C
:10557000043900F50F75002052F8043F51F8044F2C
:1055800063401843AA42F7D1431E23EA0000C00F2C
:1055900030BC704770B4041F104E06F16002C03674
:1055A000002152F8043B54F8045F6B401943B242A7
:1055B000F7D14B1E23EA0101C90F00F15C0300F58E
:1055C0000F75002253F8044F2243AB42FAD1501E0C
:1055D00020EA020001EAD07070BC70475841050013
:1055E00000487047B84105002DE9F04F91B0039194
:1055F00000F1C0094FF0000B06E009F1C0090BF102
:10560000600BBBF5907F48D0A9F1C005A9F16007F8
:10561000039B03EB0B08A9F190060C230093204B8E
:10562000204A414604A8FEF7DBFA2C46AA4605F1BB
:105630002F010B1B23F0030210A8024403F0030305
:10564000DB0052F8302C22FA03F304F8013BB44299
:10565000EFD10C230093124B124A08F1300104A839
:10566000FEF7BEFA0AF15F010B1B23F0030210A83C
:10567000024403F00303DB0052F8302C22FA03F358
:1056800004F8013BBC42EFD10AF16005603708F530
:10569000907860364D45C0D1AFE711B0BDE8F08FCE
:1056A000FDFFFCFF584105004FF44760704700299B
:1056B00014BF4021002101600021416000F54761D5
:1056C000914208BF2A228260C36070470346806807
:1056D0002A2808BF03F54760704708B50C22024925
:1056E000FFF760FC08BD00BF58410500F0B59BB056
:1056F0000446114D0C260196104F00972B4602468A
:1057000001460EA8FBF7F5FE04F130010196009763
:105710002B460A4602A8FBF7ECFE00962B4602AA8F
:105720000EA90846FCF78EF9324629460EA8FFF767
:1057300039FC1BB0F0BD00BF58410500FDFFFCFF68
:1057400008B5FFF707FC08BD08B5FFF703FC08BD67
:1057500001EB41014901013801FA00F07047B0F551
:10576000005F28BF4FF4005000EBC00000017047FD
:1057700001EB41018901013801FA00F07047B0F5F1
:10578000805F28BF4FF4805000EBC000400170479D
:1057900008B5FBF78EFC0138C02303FA00F008BD02
:1057A000F0B587B00C9D0E9E0F9C3719AF4286BF97
:1057B000AC1B671C27460497039402960D9C01942A
:1057C0000095FEF70FF907B0F0BD2DE9F04FADB031
:1057D00005468A4617469846369E1046FBF769FCF2
:1057E0000446421EC0239340032B08D99908379AD8
:1057F0000023184642F8040B01339942FAD8379B2C
:105800002B4605F19001002243F8042B8B42FBD17B
:10581000B6FBF4F304FB13635A1CB6EB03093DD04B
:1058200007940CE029462846FDF7D3FB0BF1010B4A
:105830005C45F7D1B9EB040919D0079B1A460492CD
:105840000393CDF80890379B0193009643463A4660
:10585000514608A8FEF7C6F8002308AA294628469C
:10586000FCF725FE002CE5D04FF0000BDAE72246CE
:105870000492039400240294379B019300964346BC
:105880003A46514608A8FEF7ADF8234608AA29462D
:105890002846FCF70CFE2DB0BDE8F08F1C46E7E76C
:1058A00008B5FBF706FC01384FF4C07303FA00F0AB
:1058B00008BD10B582B008240194049C0094FBF745
:1058C00018FE02B010BD10B582B0082401940093F8
:1058D00013460A46FBF70DFE02B010BD10B582B0AC
:1058E0000C240194049C0094FBF703FE02B010BD4D
:1058F00010B582B00C240194009313460A46FBF7BE
:10590000F8FD02B010BD10B582B008240094FCF779
:1059100099F802B010BD10B582B00C240094FCF7C9
:1059200091F802B010BD10B582B008240094FBF7C6
:10593000D6FB02B010BD10B582B00C240094FBF76A
:10594000CEFB02B010BD08B50823FCF715FD08BD5D
:1059500008B50C23FCF710FD08BD10B582B0082473
:105960000094FDF7D7FA02B010BD10B582B00C2438
:105970000094FDF7CFFA02B010BD10B582B0082434
:105980000094FDF761FC02B010BD10B582B00C248C
:105990000094FDF759FC02B010BD08B50822FBF7D2
:1059A000D4FB08BD10B582B008240094FFF792F82C
:1059B00002B010BD10B582B008240094FEF7A0F824
:1059C00002B010BD10B582B008240094FEF708F9AB
:1059D00002B010BD10B582B00C240094FEF700F99F
:1059E00002B010BD10B582B008240094FEF780F913
:1059F00002B010BD10B582B00C240094FEF778F907
:105A000002B010BD10B582B008240094FBF7CBFBA8
:105A100002B010BD10B582B00C240094FBF7C3FB9C
:105A200002B010BD00B583B013460C2200920122D3
:105A3000FBF7B9FB03B05DF804FB08B50C22FEF7D9
:105A4000F9F908BD30B58FB00C4613460C2500950A
:105A50000A46014602A8FEF7C3F82A46214602A8D4
:105A6000FEF7E8F90FB030BDF8B506460C460C223B
:105A7000FEF7E0F905460C22214606F13000FEF75C
:105A8000D9F906F12C0306F15C07002153F8044F05
:105A90002143BB42FAD14F1E27EA0101CF0F05EA8D
:105AA000E171013F07400F43331F06F12C04002230
:105AB00053F8041F0A43A342FAD1531E23EA0202F9
:105AC000D30F00EAE272581E0540154305F00105A8
